:020000000C945E
:10000200C6010C9400000C9400000C9400000C94A7
:1000120000000C9400000C9400000C9400000C945E
:1000220000000C9400000C9400000C9400000C944E
:1000320000000C9400000C9400000C9400000C943E
:1000420000000C9400000C9400000C9400000C942E
:10005200000005072060000000000000005F0000B3
:100062000007000700147F147F14242A7F2A12231A
:100072001308646236495522500005030000001C33
:100082002241000041221C00082A1C2A0808083EBE
:100092000808005030000008080808080030300046
:1000A2000020100804023E5149453E00427F4000B4
:1000B20042615149462141454B311814127F1027A4
:1000C200454545393C4A49493001710905033649DC
:1000D200494936064949291E00363600000056367F
:1000E20000000008142241141414141441221408AC
:1000F200000201510906324979413E7E1111117EF9
:100102007F494949363E414141227F4141221C7F7C
:10011200494949417F090901013E414151327F0864
:1001220008087F00417F41002040413F017F0814C1
:1001320022417F404040407F0204027F7F0408103A
:100142007F3E4141413E7F090909063E4151215E00
:100152007F09192946464949493101017F01013F79
:100162004040403F1F2040201F7F2018207F631403
:100172000814630304780403615149454300007F76
:100182004141020408102041417F000004020102A3
:10019200044040404040000102040020545454787E
:1001A2007F484444383844444420384444487F38E3
:1001B20054545418087E090102081454543C7F0810
:1001C20004047800447D40002040443D00007F103C
:1001D200284400417F40007C041804787C08040411
:1001E2007838444444387C14141408081414187CD5
:1001F2007C080404084854545420043F4440203CE2
:100202004040207C1C2040201C3C4030403C442884
:100212001028440C5050503C4464544C440008365E
:10022200410000007F000000413608000201020484
:10023200027F4141417F000103070F1F3F7FFF0003
:100242001027E80364000A000100001000011000FA
:1002520001001B36244800740235560A2800F002B9
:10026200001E7FE00164031F78608601C403376EBD
:100272004890014304070E78F001E0045072657360
:100282007320746F20746573740054657374696E9F
:10029200672E2E2E004943206973203734303800F0
:1002A2004449503134202D2054544C004943206994
:1002B200732034303636004449503134202D2043E7
:1002C2004D4F53004943206973203734343500447D
:1002D20049503136202D2054544C00494320697333
:1002E2002034353332004449503136202D20434DDD
:1002F2004F53004943206973203734313537004961
:100302004320697320373431353600556E6B6E6F7A
:10031200776E2049430001002D4E414E00494E4662
:1003220000002A002F0354020E0060027E020B001E
:100332006E028C020B00790297020C008402A20268
:100342000B009002AE020D009B02B9020B00A80244
:10035200C6020C00B302D1020B00BF02DD020D0087
:10036200CA02E8020C00D702F5020C00E302D10235
:100372000C00EF0201030C00FB02D1020B00070389
:100382000D030100530518030000F894EE27ECBB9F
:10039200F1E0F5BFE5BF8DE0A2E0BB27ED938A95C2
:1003A200E9F780E098E0A0E6ED930197E9F7E4E24F
:1003B200F3E085919591009761F0A591B591059033
:1003C2001590BF01F00105900D920197E1F7FB0135
:1003D200F0CFEFE5EDBFE8E0EEBFC0E6D2E00C946F
:1003E200F201289710E001E030E0E4E5F0E0E88374
:1003F200F983EE81EC7FEE83E37EEC60EE83EF81A6
:10040200E078E263EF83DE010E9463060E94EA065F
:1004120044D0E02FF0E0E130A0E0FA0769F457D3CE
:10042200E0E6F2E00E94AE0A46D3E03021F002E0BC
:1004320042D3E030E9F72FC0E230A0E0FA07E9F456
:100442000E94EA06EEE6F2E00E94AE0A363088F436
:10045200A7E03A9FF001EC5CFC4FDF01ED91FD91CA
:1004620009951E2F37D3103011F003E002C03F5F11
:10047200EDCFA12F33D303E00EC0E330A0E0FA07A3
:1004820051F419D3E03039F016D3E030E9F70E9485
:10049200EA0630E001E0BDCFFFCFBB98C39AE4B3D8
:1004A200E360E4BBE5B3EC7FE5BB0895AA931A933E
:1004B2001981D09AD898103019F48E9A969804C05F
:1004C200113011F48F9A9798A5E0B0E00E94BC0B0E
:1004D200D89A103011F4969803C0113009F4979805
:1004E20018812296089521970E943B0CE1B3A091B6
:1004F2002F030E94B50AE09130030E94BA0AE091EC
:1005020031030E94BF0AE09132030E94C50AE091C2
:100512002F030E94CB0AE0913003E095EA23EBBB64
:10052200A0913303C3DF10E0143008F04FC0E12F75
:10053200E1700E2FE12F0E94D10A3E2FE2B3AE2FBF
:10054200E0912F03E095EA23E02BAE2FE32FEE0F8D
:10055200EA2BAE2FE02F0E94D60AE295E07F0E949E
:10056200DD0AE09130030E94E20A0E94EA0AE32FC8
:10057200E295E07FEE0F0E94F50AE470F0E00E943F
:10058200DE0B2E2FE0B30E94FD0A0E94040B0E9494
:100592000D0B0E94140BE32FE023E21711F0E0E0B1
:1005A2008EC0E32FE023E51711F0E0E088C0E32FCF
:1005B200E023E41711F0E0E082C0E32FE023AE81F4
:1005C200EA1711F0E0E07BC01F5FAECF0E94EA069F
:1005D200E9E7F2E00E94AE0AE4E8F2E06CC021979B
:1005E2000E94190BE09136030E94B50AE09137038D
:1005F2000E94BA0AE09138030E94BF0AE0913903CF
:100602000E94C50AE09136030E94CB0AE0913703AB
:10061200E095EA23EBBBA0913A0348DF10E01230E9
:1006220008F041C001E0312FE2B3AE2FE091360372
:10063200E095EA23E32BAE2F0E94EA0AE02FE2952F
:10064200E07FEE0F0E94DD0AE09137030E94E20A8A
:10065200E02F0E941E0BE32FE295E07FEE0FEE0FDC
:100662000E94F50A0E94D10A2E2FE0B3E870F0E052
:100672000E94DC0B0E94040B0E94FD0A0E94140BD4
:10068200321711F0E0E01BC0351711F0E0E017C09F
:10069200341711F0E0E013C0AE813A1711F0E0E038
:1006A2000EC01F5FBCCF0E94EA06E0E9F2E00E94A2
:1006B200AE0AEBE9F2E0FA93EA930E94280B0E9459
:1006C200420C279608950E94190BE0913D030E9467
:1006D200B50AE0913E030E94BA0AE0913F030E94EC
:1006E200BF0AE09140030E94C50AE0913D030E94C7
:1006F200CB0AE0913E03E095EA23EBBBA0914103D4
:10070200D5DE20E02A3088F5122FEBB3AE2FE09130
:100712003E030E942F0BEF70EE0F0E94F50AAE2FE0
:10072200E0913F03EA235E2FE9B3AE2FE09140034D
:10073200EA234E2F3FE700EE0E94340B173028F4D5
:10074200E12F0E94380B3E2305C0EEE0E11B0E9420
:10075200380B0E23351711F4041729F0E0E00E943C
:10076200420C0C943F072F5FCDCF0E94EA06E8EAC5
:10077200F2E00E94AE0AE3EBF2E00E943D0B0E941F
:10078200420C0C943F0722970E94190BE0914403FC
:100792000E94B50AE09145030E94BA0AE09146031D
:1007A2000E94BF0AE09147030E94C50AE0914403F8
:1007B2000E94CB0AE0914503E095EA23EBBB949AB1
:1007C200A091480373DE17E0113008F44DC0E2B384
:1007D200E07FE2BBEBB3E778EBBB143050F41BB223
:1007E200E3E0E11BED5FA1E00E94CA0BE129EBBB54
:1007F20008C012B2E12FE450A1E00E94CA0BE12925
:10080200E2BB0E94400BAE2FE0914603EA230E2F7B
:10081200E9B3AE2FE0914703EA233E2F0E94340B47
:10082200E32FEE1FE0E0EE1FE1705E2FE02FE29576
:10083200EF70E695E1704E2FE02FE295EF70E695AE
:10084200E695E170EF83E42FEE0FEE0FAE2FEF810E
:10085200EE0FEA2BE52BEE83212FAE812A1711F042
:10086200E0E00CC01150B0CF0E94EA06EFEBF2E0DC
:100872000E94AE0AEAECF2E00E943D0B0E94420C9A
:100882002896089523970E94190BE0914B030E942A
:10089200B50AE0914C030E94BA0AE0914D030E940E
:1008A200BF0AE0914E03E095EA23EABBA0914F0311
:1008B200FDDDD998909810E0123008F072C000E087
:1008C200043008F06CC0E02FE1703E2FE02F0E9450
:1008D200D10A2E2FE2B3AE2FE0914B03E095EA232B
:1008E200AE2FE32FEE0FEA2BAE2FE22F0E941E0B4C
:1008F200E22FE295E07FEE0F0E94DD0AE0914C03C9
:10090200E095EA23AE2FE32FEE0FEE0FEA2BAE2F88
:10091200E22F0E94D60AE295E07FEE0FEA2BAE2F7D
:10092200E22FE295E07FEE0FEE0FEA2BEBBBE2B394
:10093200E12BE2BB0E94400BE870F0E00E94DC0B6E
:100942004E2FE0B30E940D0BE887E9B3E078F0E0A8
:100952000E94DC0B0E94DA0BEF83E9B3E071F0E056
:100962000E94DA0B0E94140B103011F4E32F01C025
:10097200E22F5E2F541711F0E0E01DC0A8855A1730
:1009820011F0E0E018C0AF815A1711F0E0E013C097
:10099200AE815A1711F0E0E00EC00F5F91CF1F5FDA
:1009A2008BCF0E94EA06E7EDF2E00E94AE0AE3EE88
:1009B200F2E00E943D0B0E94420C299608950E948B
:1009C2003D0CE1B3AE2FE09152030E94B50AE091D3
:1009D20053030E94BA0AE09154030E94BF0AE091B5
:1009E20055030E94C50AE09154030E94DD0AE0917A
:1009F2005503EA2BEBBBA091560358DDDA98919888
:100A020010E0143008F049C0E2B3AE2FE091520377
:100A12000E942F0B0E94D10AEE0FEE0F0E94DD0AF8
:100A2200E09153030E942F0BE170EE0FEE0FEE0FD9
:100A3200EA2BEBBB909AD9980E94400BAE2FE09123
:100A42005403EA23F0E00E94DC0B3E2FE9B3AE2F01
:100A5200E0915503EA23F0E00E94DA0B2E2FE12FFA
:100A62000E94380BEF700E2FA32F49D0F0E00E94A6
:100A7200DA0B3E2FA22F43D0F0E00E94DA0B2E2F8A
:100A82000E94340B031711F4021729F0E0E00E94D0
:100A9200440C0C94AC0A1F5FB4CF0E94EA06EFEE3E
:100AA200F2E00E94AE0AEBEFF2E00E943D0B0E94E0
:100AB200440C0C94AC0AB39908C0A2E3B0E00E94C3
:100AC200BC0BB39902C0E1E00895E0E00895A89854
:100AD200A9980895E0E0EBBBE2BB0895AA93E881F0
:100AE200E03019F0A89AA99808C0A99AA8980E947B
:100AF200EA06E7E0F3E00E94AE0A0C94E806AA9345
:100B02001A930A9317E00A81EA81E695EA83EA8159
:100B1200E03041F0000FE1700E2BEA81E695EA83A6
:100B22001150F5CFE12FA02F0E94CA0B0E2F198171
:100B320008810C948D0AAA930E943D0CAE81BF815C
:100B42000E94FA051E2F30E01031C8F4E5E0E19F63
:100B5200F001A4E5B0E0AE1BBF0BBD01E12FF0E058
:100B62003197DF01EC81F0E00E94EB0BDB01AE1B61
:100B7200BF0BE2E0F0E00E94030C0E2F01C000E088
:100B8200113018F12197E32F3F5FAF81B885F0E074
:100B9200AE0FBF1FEC91E883E03029F421960E944A
:100BA200440C0C94270A0A93EF81EA93AA810E94CB
:100BB200290AED81EB5F0E0F0F3420F000E0EE8189
:100BC200E65FEE8311502196DBCF0E94440C0C9419
:100BD200270ABA93AA93B981A881109631F0FC81B1
:100BE200EB816A8161931197E9F7EB81FC8125968C
:100BF2000895BA93AA93A991B991EE27FF276D910F
:100C0200662311F03196FBCF08950895AA931A93A3
:100C1200C39818E0FADFE981E07811F0C59A01C0C3
:100C2200C598E981EE0FE983F0DFC79AEEDFC79836
:100C3200115081F7C39A18810C94460AAA93C0985E
:100C4200A881E4DFC4C0AA93C09AA881DFDFBFC035
:100C5200AA931A93E981E695E695E6951E2FE4E5B7
:100C6200E19FF001DF01EA81F0E0EA0FFB1FE09370
:100C72005903F0935A03E12F18810C948D0AAA9319
:100C8200E981E068AE2FDADFE981EA93A981E0DF4A
:100C9200E064AE2FD3DF0C94460AAA93E981EA936B
:100CA200A981EDDFE0915903F0915A03E55AFC4F17
:100CB200E0810C94460AAA930E94460BA881A08365
:100CC200C2DF85C0BA93AA930E943D0CBB9AC39A15
:100CD200BF9AC798BD9AB89AB99AC1980E94340B24
:100CE200C19AEC81FD81309721F1E681E3701E2FDC
:100CF200EC81FD81E681E695E695E7700E2FEC81A9
:100D0200FD81E781EF773E2FAC81BD810E94160CF9
:100D1200E0931603F093170312960E94160CE093C9
:100D22002B03F0932C03AC81BD8114960E94160C08
:100D32000DC010E003E032E3E0E0F0E0E0931603E0
:100D4200F0931703E0932B03F0932C03E0932D030E
:100D5200F0932E03A1E272DFE12FE460AE2F6EDF8B
:100D6200E02FE061AE2F6ADFE32FE068AE2F66DF8F
:100D7200A0E264DFA1E022D0E1E0E0931203E0E030
:100D8200E0931303E1E0E0931803E0931903E09387
:100D92001A03EFEFE0931B03E1E0E0932203E3E2A7
:100DA200F3E0FA93EA93EFEFEA93A8E0B0E00E944F
:100DB200EA050FD0E1E00E94440C60C0AA93E881EA
:100DC200E03011F0ECE001C0E8E0AE2F37DF219611
:100DD20008950E943D0C30E0E0911303E03009F0E9
:100DE2003FEFE0E0EA93A0E04ADF08EF11E0F8010C
:100DF20001501040309719F0A32F5DDFF8CFE0E0EB
:100E0200EA93A0E02DD30E94440C0C94AC0AAA935E
:100E12001A93ED81EA93AD8140DF1E2FE981E7301D
:100E220011F0E83039F4EB81EA93AA810E94480A72
:100E3200EB8308C0E33021F4EB81E095EB8302C041
:100E4200E03021F4EA81E0951E2302C0E23029F469
:100E5200EA81AB81EA231E2B0EC0E13029F4EA813C
:100E6200AB81EA231E2707C0E43029F4EA81E0952A
:100E7200AB81EA2B1E23A12F1EDF1881269608952F
:100E8200AA9323970E943B0CA889A43548F4AF8506
:100E9200A03330F4AE85A03019F0AD85A03009F44E
:100EA200CCC1EE85E887A889BB27EE85F0E0AE0FBE
:100EB200BF1FA535E0E0BE0720F0A889E4E5EA1BE4
:100EC200EE872D85AF85BB27ED85F0E0AE0FBF1F06
:100ED200D19720F0AF85E0E3EA1BED87A985A63024
:100EE20009F05BC0EC85E13009F4A7C1E33039F4C5
:100EF200E0912D03F0912E03309709F49EC10885ED
:100F0200ED85E695E695E6953E2FE22FE77019F41A
:100F1200AD852A17E9F0A02FBB27E32FF0E00E944E
:100F2200E30BAA85BB850E94510B26952695269533
:100F3200532F5F935F5FE22FAF91EA1748F0102FB4
:100F4200E12F1150E03019F00E94560BF9CFF1CF8A
:100F5200AE850A1711F1EE85AA85BB85F0E00E94E5
:100F6200510BED85E77009F03F5F20E02F932F5F73
:100F7200E32FAF91AE1788F41E851F931F5FE02FFA
:100F8200AF91AE1718F40E94560BF7CFEE85AE81E3
:100F9200BF81F0E00E94510BE9CFEF85E7703E2F51
:100FA200ED85E03009F449C1EA85FB85EE83FF83D4
:100FB20010E00889303009F063C0AD85A83008F42C
:100FC2005AC0E985E03011F0E33009F402C0E7309D
:100FD20009F402C0E83009F402C0E93009F402C0A1
:100FE200EA3021F40A93A8894ADE04C0E63011F4FB
:100FF2000E94630B1F931F5FEE85AF91AE17A0F5A2
:10100200A985A63051F40E94670BFA93EA930E94D5
:10101200460BA0810E948F0A26C0E985E93011F4AF
:1010220050E00EC0EA3011F45FEF0AC00E94670B75
:101032000E94700B5E2FE985E73011F0E83021F451
:101042000E94760B5E2F06C0E33011F4509502C069
:10105200E03019F4A52FF7DD06C00E947A0BEFEFFE
:10106200EA93AD85D4DEC6CFEF85E85FEF87ED85E5
:10107200E850ED87D9C05D8520E0E0E0ED877EC0D5
:10108200E32FAD85AE0FA93020F42D85E0E0ED878A
:1010920003C0E8E0E31B2E2F3A93A22F0E943D0AE1
:1010A2004E2FE985E63011F50E94630B1F931F5FF7
:1010B200EE85AF91AE17C8F40E94460BE081E4239F
:1010C200AE2FE32F0E94D20B0E94800BE32FA42F9E
:1010D2000E94D20BE095E1215E2B0E94670BFA93EE
:1010E200EA93A52F0E948F0AE1CF2CC0E93011F4B8
:1010F20050E003C0EA30A9F45FEF0E94760BAE2FF6
:10110200E32F0E94CA0B5E2F1F931F5FEE85AF91E4
:10111200AE1730F40E947A0B4A93A0E078DEF4CF47
:1011220011C01F931F5FEE85AF91AE1758F40E9456
:101132008B0BAE2FE32F0E94CA0BEA934A93AD8525
:1011420066DEEFCFED85E03009F477C0AD85A830DB
:1011520028F4ED85E21B5E2FE0E003C0532FED85FE
:10116200E850ED8710E0EF85E85FEF87E8E0E31BEA
:101172002E2F0889EA85FB85EE83FF83E52FF0E0B9
:10118200E85CFD4F4491E985E63011F50E94630B5E
:101192001F931F5FEE85AF91AE17C8F40E94460BF6
:1011A200E081E423AE2FE22F0E94CA0B0E94800B43
:1011B200E22FA42F0E94CA0BE095E1215E2B0E9430
:1011C200670BFA93EA93A52F0E948F0AE1CF2CC0F6
:1011D200E93011F450E003C0EA30A9F45FEF0E9455
:1011E200760BAE2FE22F0E94D20B5E2F1F931F5F52
:1011F200EE85AF91AE1730F40E947A0B4A93A0E0CD
:1012020006DEF4CF11C01F931F5FEE85AF91AE17BC
:1012120058F40E948B0BAE2FE22F0E94D20BEA935E
:101222004A93AD85F4DDEFCFE885AA85BB85F0E072
:10123200EA0FFB1FEA87FB87B3CE0E94420C61963E
:1012420008950E94980B1CF0E0E0F0E01EC1A88116
:10125200B981A435E0E0BE071CF0E3E5F0E015C17A
:10126200E881F98112C10E94980B1CF0E0E0F0E0E5
:101272000CC1A881B981D0971CF0EFE2F0E005C162
:10128200E881F98102C1BA93AA9323970E949F0B26
:101292008F01002E012A19F4E0E0F0E05FC00E9405
:1012A200A60B0F820E94A60B0E820E94A60B088636
:1012B200EB85A885EA1718F4E0E0F0E04FC0F801EA
:1012C2000F5F1F4F5491A885BB27EE27A50FBE1FA6
:1012D200EB85F0E0EA17FB0718F0E0E0F0E03EC033
:1012E200EE81E695E695E6954E2FEE81E77009F0E0
:1012F2004F5FEF81E030A1F0A985BA85EC93A88514
:10130200EB85EA1BF0E0DF01EF81F0E00E94E30BE6
:10131200DF01E42FF0E00E94E30BE00FF11F1EC09B
:101322009801E52FF0E00E0F1F1FA885AF5FA88779
:10133200A150EB85AE1760F4F9012F5F3F4FA491E6
:10134200B0E0E42FF0E00E94E30B0E0F1F1FEDCF81
:10135200F901E491A985BA85EC93F8010E94420C47
:101362002C960895E0E0E0931403A0911503BB27A7
:101372000E94AB0BF0E0AE0FBF1FE0911903F0E04B
:10138200AE0FBF1F70DFE09315030895AA93219754
:101392000E949F0B309709F455C0AF81AA3009F41F
:1013A2004FC0EF81EA93DE0117966DDFAF013097F0
:1013B20009F44AC0E0911803AE81EA0F3E2FA091D2
:1013C2001403BB27F0E0EA0FFB1F8F010535E0E0B5
:1013D2001E0718F0032F1127C5DFE0911403EA93CB
:1013E200E0911503EA93E885EA930E94AB0BEA9336
:1013F200E1E0EA935A934A93A7E042DDE0911403B5
:10140200AE81EA0FEA93E0911503EA93E0911803A3
:10141200EA930E94AB0B0E94B20BE0911403EA9391
:10142200A09115030E94AB0BEA0FEA933A93E09165
:1014320019030E94B20BE4E5F0E0E017F10711F4A2
:1014420091DF02C0009314030E94420C2896089573
:10145200AA93EA81EA93AA8103D0A88197DF5CC0AC
:10146200AA93A981BB27EDDEE0931403A881BB27D1
:10147200FADEE093150309C0AA93E881F0E0E85C84
:10148200FD4FA491E9810E94CA0B22960895AA9366
:101492001A93E981E73011F0EA3019F4109112033E
:1014A20009C0E93019F41091130304C0E830A1F423
:1014B20010912203E0911303E03049F0103019F04B
:1014C200EFEF188129C0EA81E095188125C010301C
:1014D20019F4E0E0188120C0EA8118811DC0BA9396
:1014E200AA93EA81E13021F4E881F981E49114C000
:1014F200E23029F4A881B9810E941A0C0DC0E330B0
:1015020041F4A881B981E0912B03F0912C03099554
:1015120003C0A881B981EC9123960895AA93EB8127
:10152200E03029F4E881A981BA81EC9314C0E23059
:1015320031F4E881A981BA810E94260C0CC0E33003
:1015420051F4E981FA81FA93EA93AA81E0912D0399
:10155200F0912E03099524960895FA93EA93E2E115
:10156200EA93A1E00C949C05EA2BE1BBEAB3AE2F0F
:101572000895EA2BEABBE1B3AE2F0895E095EA2382
:10158200E1BBEAB3AE2F0895E095EA23EABBE2B3EA
:10159200AE2F0895E095EA23E2BBEBB3AE2F089598
:1015A200E270F0E0F595E7950895EE0FEE0FEE0F7D
:1015B200EA2BAE2FE32F0895EA2BE2BBEBB3AE2F5B
:1015C2000895E095EA23AE2FE02FEE0FEA2BAE2F1F
:1015D2000895E32FEE0FEE0FEA2BAE2FE02FE295E8
:1015E200E07FEA2BAE2F0895EA2BEBBBA4E1B0E03B
:1015F2000E94BC0BE0B30895E072F0E0F595E79528
:101602000E94DA0B08955E2FE9B3E870F0E00E94C1
:10161200DC0B4E2FE9B30895E074F0E00E94DE0B7C
:101622000E94DA0B0895EE83AAE0B0E00C94BC0BA2
:101632000E943B0CE1B3AE2F0895EE0FEE0FEA2BA2
:10164200AE2FE32FE295E07FEA2BAE2F0895EBE178
:10165200EA93A1E00E949C05E1E00895E095EA2367
:10166200AE2FE12F0895AAE0B0E00C94BC0BA1E0EC
:101672000E94CA0BE0950895FA93EA93E8CFA4E199
:10168200B0E00E94BC0BE0B30895A9E5B3E0ED9190
:10169200FD913196FE93EE933197E55AFC4F0895F2
:1016A200EA0FFB1FEE83FF830895EC85EA93EF8137
:1016B200F8853196EF83F8873197FA93EA93A0E0A1
:1016C2000C948F0A0A93A8890C942906EC85EA9354
:1016D200EF81F8853196EF83F88731970895662771
:1016E2007727DF01CB010C94700A5A93AA850C94D8
:1016F200480A0A930395E889EA935A9308955E2F5C
:10170200EC85EA93AF81B885882799270E94700AF1
:101712001E2E08950A930395E889EA93EE85EA93CB
:10172200E985FA853196E987FA873197D8CFBA9356
:10173200AA93A881B9810E94370C08950E943B0C9C
:10174200E0911603F09117030895F8010F5F1F4F00
:1017520004900895E0911603F09117033196E491F5
:101762000895EA93E0E0EA93E0E0F0E0FA93EA9386
:10177200A9E00C944107109639F0A8958DEC9AE0F7
:101782000197F1F71197C9F70895F195E195F040A6
:101792000895EE230E2EEA2F19F0EE0F0A94E9F7C0
:1017A2000895EE230E2EEA2F19F0E6950A94E9F732
:1017B2000895F595E795F595E795F595E795F595EE
:1017C200E7950895FA9FF02DEB9FF00DEA9FE02D2B
:1017D200F10D08951CD0F6DF0EF4D7DF0895002432
:1017E200112490E1AA0FBB1F001C111C0E1A1F0A24
:1017F20018F40E0E1F1E01C0A1609A9599F7FD0103
:10180200D001089504D0EBDF0EF4BFDF0895E89411
:10181200F7FF02C0BADF6894B7FF06C0A095B09583
:10182200119600F8039400FA0895ED91FC91119736
:101832000895E199FECFFF93FFB7F894AEBBBFBB0B
:10184200E09AEDB3FFBFFF910895E19B02C0A89516
:10185200FCCF9FB7F894AEBBBFBBE09A8DB3E8173D
:1018620019F0EDBBE29AE19A9FBF089500240A168F
:101872000B0608955A934A933A932A931A930A931A
:1018820008955D814C813B812A81198108810895E7
:00000001FF
