:200000000C942B010C9400000C9400000C9400000C9400000C9400000C9400000C940000B4
:200020000C9400000C9400000C9400000C9400000C9400000C9400000C9400000C940000C0
:200040000C9400000C9400000C9400000C9400000C940000000000000000005F000000071A
:20006000000700147F147F14242A7F2A12231308646236495522500005030000001C224165
:20008000000041221C0014083E081408083E08080050300000080808080800606000002085
:2000A000100804023E5149453E00427F400042615149462141454B311814127F10274545A2
:2000C00045393C4A49493001710905033649494936064949291E00363600000056360000B9
:2000E0000814224100141414141400412214080201510906324979413E7E1111117E7F49D1
:200100004949363E414141227F4141221C7F494949417F090909013E4149497A7F0808085D
:200120007F00417F41002040413F017F081422417F404040407F020C027F7F0408107F3E7B
:200140004141413E7F090909063E4151215E7F09192946464949493101017F01013F40400B
:20016000403F1F2040201F3F4038403F631408146307087008076151494543007F41410004
:2001800002040810200041417F0004020102044040404040000102040020545454787F4871
:2001A0004444383844444420384444487F3854545418087E0901020C5252523E7F08040427
:2001C0007800447D40002040443D007F1028440000417F40007C041804787C08040478387A
:2001E000444444387C14141408081414187C7C080404084854545420043F4440203C4040DC
:20020000207C1C2040201C3C4030403C44281028440C5050503C4464544C44000836410037
:2002200000007F00000041360800100808100878464146784F4B2121004E4F54204F4B2123
:200240002100E0016E0254000500600234020900650239020000F894EE27ECBBF1E0F5BFC3
:20026000E5BF8DE0A2E0BB27ED938A95E9F780E098E0A0E6ED930197E9F7E2E4F2E0859186
:200280009591009761F0A591B59105901590BF01F00105900D920197E1F7FB01F0CFEFE5B6
:2002A000EDBFE8E0EEBFC0E6D2E00C94DE01C4980895C49A0895E3EBE7BBC19ABE98C49AD3
:2002C000E1E5EDB90895AA93E881EFB9779BFECF3CC1AA93C098EBDFA881F5DFC09AE9DF6D
:2002E00034C1BA93AA930E94D602AC81BD810E94A7028F01C09ADBDF20E030E0201731072C
:2003000044F52297E0E0E883E983A881B9811597D4F4F901AE81BF81AE0FBF1FEC91F0E02C
:20032000B097A5E0B0E00E94CC02E259FD4FA881B981AE0FBF1FAC91C6DFE881F9813196E0
:20034000E883F983E2CFA0E0BEDF22962F5F3F4FD5CFAFDF0E94DD0226960895C198A4E625
:20036000B0E00E94B902C19A0895F8DFA1E2B1DFA0ECAFDFA7E0ADDFA3E1ABDFA0E2A9DF69
:20038000ACE0A7DF0895AA93A981A3DFA881A1DF229608951A930A938ADFC09A00E010E0EA
:2003A000083FE1E01E072CF4A0E08DDF0F5F1F4FF7CFC0987EDF09911991089510E007D005
:2003C00024D026D01E2FA12FA6D0FFCFFFCFE0E0E1BBE1B3EB61E1BBE0E0E2BBEABBEAB38D
:2003E000E663EABBE0E0EBBBE1B3EB7DE1BBEAB3E77BEABBD09A8E9AD8989698E4B3E36063
:20040000E4BBE5B3EC7FE5BB0895D89A9698089523970E94D40210E0143008F077C0E12F1B
:20042000E1700E2FE12FE270F0E0F595E7953E2FE02FAE2FE32FEE0FEA2BAE2FE02FEE0F90
:20044000EE0FEE0FEA2BAE2FE32FE295E07FEA2BE2BBE12FE1702E2FE12FE270F0E0F5959C
:20046000E7955E2FE22FEE0FAE2FE52FEE0FEE0FEA2BAE2FE22FE295E07FEA2BAE2FE52F9B
:20048000E295E07FEE0FEA2BEBBBAAE0B0E00E94B902E0B3E470F0E00E94C7024E2FE0B325
:2004A000E072F0E0F595E7950E94C302E887E9B3E870F0E00E94C502EF83E9B3E074F0E0DF
:2004C0000E94C7020E94C302EE83AAE0B0E00E94B902E32FE023E41711F0E0E018C0E32FA7
:2004E000E023A885EA1711F0E0E011C0E52FE223AF81EA1711F0E0E00AC0E52FE223AE811C
:20050000EA1711F0E0E003C01F5F86CFE1E00E94DB0229960895AA93E881E03059F0A89AA6
:20052000A9980E94B302E0E4EA93A0E42CDFA0E6B2E00AC0A99AA8980E94B302E0E2EA9358
:20054000A0E421DFA5E6B2E0CCDE21960895BA93AA93A991B991EE27FF276D91662311F02B
:200560003196FBCF08950E945B010E94B5010C94CA01109639F0A8958DEC9AE00197F1F70D
:200580001197C9F70895F595E795F595E795F595E795F595E7950895FA9FF02DEB9FF00D64
:2005A000EA9FE02DF10D08955A934A933A932A931A930A9308955D814C813B812A81198123
:0405C0000881089511
:00000001FF
