:080000000C942A000C9400008E
:100008000C9400000C9400000C9400000C94000068
:100018000C9400000C9400000C9400000C94000058
:100028000C9400000C9400000C9400000C94000048
:100038000C9400000C9400000C9400000C94000038
:100048000C9400000C9400000C940000F894EE2727
:10005800ECBBF1E0F5BFE5BF8DE0A2E0BB27ED9377
:100068008A95E9F780E098E0A0E6ED930197E9F733
:10007800EFE5EDBFE8E0EEBFC0E6D2E00C94440047
:1000880007D029D02BD01E2FA12F98D0FFCFFFCF7C
:10009800E1B3E47EE1BBE2B3E47EE2BBEAB3E97C30
:1000A800EABBEBB3E97CEBBBE1B3E462E1BBE2B3EF
:1000B800EB7DE2BBEAB3E864EABBEBB3E77BEBBBFF
:1000C800D09A8E9AD8989698E4B3E360E4BBE5B3E7
:1000D800EC7FE5BB0895D89A969808952497E0E0B8
:1000E800E883E1E0E983E2E0EA83E3E0EB830E946E
:1000F800F60040E040E0443008F05BC02197E42F70
:10010800F0E0DE011796AE0FBF1FEC91E883E2B373
:10011800E47EAE2FE881E370EA2BE2BBEBB3E97C27
:10012800AE2FE881E370EE0FEA2BEBBB85E28A95F0
:10013800F1F7E0B3E470F0E00E94F1001E2FE0B3A5
:10014800E072F0E0F595E7950E94ED000E2FE9B317
:10015800E870F0E00E94EF003E2FE9B3E074F0E0B1
:100168000E94F1000E94ED002E2FE881E17041F01D
:10017800E881F0E0F595E795E17011F0E1E001C064
:10018800E0E05E2F511719F0E0E0219613C05017F8
:1001980019F0E0E021960EC0531719F0E0E021961F
:1001A80009C0521719F0E0E0219604C021964F5F6C
:1001B800A2CFE1E00E94FD002A960895AA93E88163
:1001C800E03019F0A89AA99802C0A99AA89821968F
:1001D8000895F595E795F595E795F595E795F595DE
:1001E800E79508955A934A933A932A931A930A9350
:1001F80008955D814C813B812A8119810881089588
:00000001FF
